:020000040800F2
:1000000000180020690D0008210D0008270D0008C8
:1000100000000000000000000000000000000000E0
:100020000000000000000000000000002D0D00088E
:100030000000000000000000370D0008410D00081E
:10004000B90D000800000000B90D0008B90D000846
:10005000B90D0008B90D0008B90D0008B90D000868
:1000600000000000B90D0008B90D0008B90D000826
:10007000B90D0008B90D0008B90D00080000000016
:10008000B90D00080000000000000000B90D0008D4
:1000900000000000B90D0008B90D0008B90D0008F6
:1000A00000000000B90D000800000000B90D0008B4
:1000B000B90D000800000000000000000000000072
:1000C00010B5064C2378002B07D1054B002B02D02E
:1000D000044800E000BF0123237010BD2800002069
:1000E00000000000D0270008044B10B5002B03D0FF
:1000F0000349044800E000BF10BDC04600000000F6
:100100002C000020D0270008002243088B4274D323
:1001100003098B425FD3030A8B4244D3030B8B4208
:1001200028D3030C8B420DD3FF22090212BA030C11
:100130008B4202D31212090265D0030B8B4219D3F2
:1001400000E0090AC30B8B4201D3CB03C01A524112
:10015000830B8B4201D38B03C01A5241430B8B425A
:1001600001D34B03C01A5241030B8B4201D30B0343
:10017000C01A5241C30A8B4201D3CB02C01A52416A
:10018000830A8B4201D38B02C01A5241430A8B422D
:1001900001D34B02C01A5241030A8B4201D30B0216
:1001A000C01A5241CDD2C3098B4201D3CB01C01A30
:1001B000524183098B4201D38B01C01A524143093A
:1001C0008B4201D34B01C01A524103098B4201D328
:1001D0000B01C01A5241C3088B4201D3CB00C01A95
:1001E000524183088B4201D38B00C01A524143080D
:1001F0008B4201D34B00C01A5241411A00D2014632
:10020000524110467047FFE701B5002000F006F8A4
:1002100002BDC0460029F7D076E770477047C04658
:1002200080B586B000AF3B1D180014231A000021D2
:1002300002F0C6FA3B1D80221A603B1D00225A6064
:100240003B1D01229A603B1D0022DA603B1D0E4AD5
:100250001900100001F0B8FC3B1D0C4A1A603B1D50
:1002600000225A603B1D01229A603B1D0022DA6089
:100270003A1DA023DB051100180001F0A5FCC046C3
:10028000BD4606B080BDC046000400500118000005
:1002900080B586B000AF3B1D180014231A00002162
:1002A00002F08EFA3B1D80221A603B1D01225A602B
:1002B0003B1D02229A603B1D0022DA603B1D0E4A64
:1002C0001900100001F080FC3B1D0C4A1A603B1D18
:1002D00001225A603B1D02229A603B1D0022DA6017
:1002E0003A1DA023DB051100180001F06DFCC0468B
:1002F000BD4606B080BDC046000400500118000095
:1003000080B584B000AF78603960FFF7C1FF00238B
:10031000BB6036E00023FB6013E0FB689B007A685B
:10032000D3181868FB685B003A68D3181B88002252
:10033000190001F0D0FD642000F0CAFDFB68013314
:10034000FB60FB68032BE8DD0023FB6013E0FB6828
:100350009B007A68D3181868FB685B003A68D3186A
:100360001B880122190001F0B6FD642000F0B0FDE9
:10037000FB680133FB60FB68032BE8DDBB680133DE
:10038000BB60BB68012BC5DDFA239B00180000F0A1
:100390009FFDC046BD4604B080BD90B587B000AF9C
:1003A000F8607A603B600B203B180A1C1A703B18FF
:1003B0001B78FA68D4187B68180000F061F8030015
:1003C0002370FFF765FF00237B614DE07B69FA68CE
:1003D000D3181B789B00BA6AD31818687B69FA682F
:1003E000D3181B785B00FA6AD3181B880022190007
:1003F00001F071FD0B243B191B7832211800FFF727
:1004000083FE0300DBB21A00032313403A68D318BB
:100410001B78180000F05CFD7B69FA68D3181B7824
:100420009B00BA6AD31818687B69FA68D3181B78DE
:100430005B00FA6AD3181B880122190001F04BFDFA
:100440003B191B7832211800FFF75EFE0300DBB278
:100450001A00032313403A68D3181B78180000F0E1
:1004600037FD7B6901337B610B23FB181B787A69AD
:100470009A42ABDDC046C046BD4607B090BD000005
:1004800080B586B000AF786000233B610EE07B68EA
:10049000180001F085F8030099B21622BB18BA18AB
:1004A00012884A401A803B6901333B613B69182B33
:1004B000EDDD16217B181B881A1C5202D2189200FF
:1004C000D3189AB27B181548844662441A800A00F1
:1004D0007B181B881B0A9BB2D9B2BB181B88DAB2E7
:1004E0000F203B184A401A703B181B781B09D9B2E1
:1004F0003B183A1812784A401A7001007B181B7892
:100500009B08DAB27B181B785340DBB203221340FE
:10051000DBB21800BD4606B080BDC04619360000EB
:10052000B0B588B000AFF8607A603B600B23FB1871
:100530000A1C1A701F23FB1800221A70FFF770FEA6
:1005400055E017257C193A687B681100180000F007
:100550005BF8030023707B191B78002BF1D000237C
:10056000BB610BE01723FB181A78BB691A41130013
:100570000122134006D1BB690133BB61BB69032B68
:10058000F0DD00E0C046192000F0A2FCBB699B0032
:100590007A68D3181868BB695B003A68D3181B885F
:1005A000190001F07BFC030019001F22BB18BA18C8
:1005B00012781A7000291AD1C0463A687B68110077
:1005C000180000F021F8031EF7D11F23FB181B7839
:1005D000FA68D3181B781A00BB69934201D0002334
:1005E0000EE01F217B181A787B1801321A701F2326
:1005F000FA180B23FB1812781B789A42A1D9012311
:100600001800BD4608B0B0BD80B586B000AF7860B8
:1006100039601723FB1800221A70FFF701FE002330
:100620003B6122E03B699B007A68D31818683B69FC
:100630005B003A68D3181B88190001F02FFC0300F7
:10064000FB60FB685A425341DBB21A003B699A4097
:1006500013005AB217217B181B785BB213435AB2AE
:100660007B181A703B6901333B613B69032BD9DD71
:1006700017203B183A1812780F210A401A703B18BD
:100680001B781800BD4606B080BD80B584B000AFB1
:1006900078603960FFF7FCFD0023BB6036E0002383
:1006A000FB6010E0FB689B007A68D3181868FB6851
:1006B0005B003A68D3181B880022190001F00BFC7C
:1006C000FB680133FB60FB68032BEBDDFA2000F0D5
:1006D000FFFB0023FB6010E0FB689B007A68D318E7
:1006E0001868FB685B003A68D3181B880122190060
:1006F00001F0F1FBFB680133FB60FB68032BEBDDD2
:10070000FA2000F0E5FBBB680133BB60BB68012B3E
:10071000C5DDC046C046BD4604B080BDB0B586B09C
:1007200000AFB9607A600F257B19021C1A70FFF7C1
:10073000AFFD1623FC187B191B7864211800FFF706
:10074000E3FC030023701723FB1800221A701FE03C
:10075000BB68083318687B6804331B8801221900C2
:1007600001F0B9FBC82000F0B3FBBB680833186880
:100770007B6804331B880022190001F0ACFBC82001
:1007800000F0A6FB17217B181A787B1801321A702B
:1007900017257A1916243B1912781B789A42D7D359
:1007A0000F23FB181B780A211800FFF7ADFC03008C
:1007B000DBB23C190A211800FFF72CFD0B00237057
:1007C0007B1900221A701FE0BB68043318687B682D
:1007D00002331B880122190001F07DFBC82000F0C4
:1007E00077FBBB68043318687B6802331B880022E0
:1007F000190001F070FBC82000F06AFB17217B187C
:100800001A787B1801321A7017257A1916217B186D
:1008100012781B789A42D7D37C180F23FB181B78C9
:100820000A211800FFF7F6FC0B0023707B19002249
:100830001A701BE0BB6818687B681B8801221900CE
:1008400001F049FBC82000F043FBBB6818687B68D7
:100850001B880022190001F03EFBC82000F038FB85
:1008600017217B181A787B1801321A701723FA188F
:100870001623FB1812781B789A42DBD3C046C04679
:10088000BD4606B0B0BD000090B585B002AF00F027
:10089000A3FA00F08BF8642000F01AFBFA235B0146
:1008A000180000F015FB00F051F900F0C3F8394BC7
:1008B000180000F027FE00237B600EE0364B7A68BC
:1008C0009200D058354B7A685200D35A0122190051
:1008D00001F001FB7B6801337B607B68032BEDDD5E
:1008E0002E4A2D4B11001800FFF70AFD2C4B1B78E8
:1008F000632B45D82A4B19782A4C264A2A48274B7D
:100900000193254B00932300FFF747FD244B1978F3
:10091000224B214A2448FFF703FE031E0BD0FA2383
:100920005B00180000F0D4FA1D4B1B780133DAB2DB
:100930001B4B1A70DAE7FA235B00180000F0C8FAC4
:10094000164A154B11001800FFF79FFEFA235B00B3
:10095000180000F0BDFA114A0F4B19008420FFF770
:10096000DDFEFA235B00180000F0B2FA0C4B002207
:100970001A700A4A084B11001800FFF7C1FCB5E7CE
:10098000074B00221A70054A034B11001800FFF7AD
:10099000B7FCF5E744000020000000201000002014
:1009A0000C01002018000020A800002090B58DB098
:1009B00000AF14243B1918001C231A00002101F079
:1009C000FFFE3B00180014231A00002101F0F8FE7E
:1009D0003B1902221A603B1980225200DA603B194F
:1009E000A02292011A613B1940225A613B1918005A
:1009F00001F08EFA031E01D000F00CF93B00072233
:100A00001A603B0000225A603B0000229A603B00C3
:100A10000022DA603B0000221A613B00002118002E
:100A200001F070FC031E01D000F0F4F8C046BD4692
:100A30000DB090BD80B58AB000AF1C23FB18180024
:100A40000C231A00002101F0BBFE3B4B5A6B3A4BC2
:100A500001210A435A63384B5B6B012213407B60D0
:100A60007B6808217B18802292011A607B18032280
:100A70005A607B1800229A607B18304A19001000D7
:100A800001F0A2F82E4B2F4A1A602D4B8022D2057E
:100A90005A602B4B00229A60294B0022DA60284BC7
:100AA00000221A61264B04225A61254B00221A7635
:100AB000234B00225A76224B01229A76204B0122A8
:100AC000DA611F4B00225A621D4B00229A621C4BB6
:100AD0002C22002199541A4B00221A63184B002231
:100AE0005A63174B00229A63154B3C2200219954FC
:100AF000134B0022DA64124B180000F03BFB031E7C
:100B000001D000F087F81C217B180F4A1A607B186F
:100B100000225A607B1800229A607A18084B110054
:100B2000180000F049FD031E01D000F073F8C04624
:100B3000BD460AB080BDC04600100240000800500B
:100B400044000020002401400020003490B589B00A
:100B500000AF0C243B19180014231A00002101F0E7
:100B60002FFE294B5A6B284B02210A435A63264B0E
:100B70005B6B02221340BB60BB68234B5A6B224B5A
:100B800001210A435A63204B5B6B012213407B60B7
:100B90007B681E4B00228021180001F09CF91C4943
:100BA000A023DB050022180001F095F93B198022F3
:100BB0001A603B1901225A603B1901229A603B19C5
:100BC0000022DA603B19114A1900100000F0FCFF06
:100BD00021007B180E4A1A607B1801225A607B188C
:100BE00001229A607B180022DA607A18A023DB05C4
:100BF0001100180000F0E8FF142000F08BF9C04647
:100C0000BD4609B090BDC04600100240000400502F
:100C10000118000080B500AF72B6C046FEE70000C4
:100C200080B582B000AF0F4B1A6C0E4B01210A4306
:100C30001A640C4B1B6C012213407B607B68094BD0
:100C4000DA6B084B802149050A43DA63054BDA6BFE
:100C500080235B0513403B603B68C046BD4602B045
:100C600080BDC0460010024090B591B000AF7860E2
:100C70002C23FB18180014231A00002101F0A0FDFA
:100C800010243B1918001C231A00002101F098FDC4
:100C90007B681B68204A93423AD13B198022D201DB
:100CA0001A603B1900225A613B19180001F076FCCA
:100CB000031E01D0FFF7AEFF184B1A6C174B8021B3
:100CC00049030A431A64154B1A6C80235B031340D3
:100CD000FB60FB68114B5A6B104B01210A435A63AE
:100CE0000E4B5B6B01221340BB60BB682C217B1851
:100CF000802292011A607B1803225A607B1800221E
:100D00009A607A18A023DB051100180000F05CFF40
:100D1000C046BD4611B090BD002401400010024005
:100D200080B500AFFEE780B500AFFEE780B500AF4D
:100D3000C046BD4680BD80B500AFC046BD4680BD43
:100D400080B500AF00F0AAF8C046BD4680BD0000E7
:100D500080B500AF034B802212059A60C046BD46A5
:100D600080BDC04600ED00E00D488546002103E04F
:100D70000C4B5B58435004310B480C4B42189A42C1
:100D8000F6D30B4A02E0002313600432094B9A4267
:100D9000F9D3FFF7DDFF01F0EFFCFFF775FDFEE78C
:100DA0000018002030280008000000202800002043
:100DB0002800002014010020FEE7000080B582B06A
:100DC00000AF7860034B7A68DA63C046BD4602B074
:100DD00080BDC0460000014080B582B000AFFB1D61
:100DE00000221A70032000F00FF8031E03D0FB1D31
:100DF00001221A7001E0FFF713FFFB1D1B7818009A
:100E0000BD4602B080BD000090B585B000AF7860EF
:100E10000F23FB1800221A701D4B1B68002B2BD0D0
:100E20001C4B1C681A4B1B681900FA239800FFF72B
:100E30006BF9030019002000FFF766F903001800A2
:100E400000F0B5FE031E12D17B68032B0AD8796827
:100E500001235B420022180000F094FE0E4B7A68DA
:100E60001A600DE00F23FB1801221A7008E00F230F
:100E7000FB1801221A7003E00F23FB1801221A70DD
:100E80000F23FB181B781800BD4605B090BDC04667
:100E9000240000201C0000202000002080B500AFAE
:100EA000044B1A68044B1B68D218024B1A60C046E8
:100EB000BD4680BD100100202400002080B500AF99
:100EC000024B1B681800BD4680BDC04610010020C3
:100ED00080B584B000AF7860FFF7F0FF0300BB601F
:100EE0007B68FB60FB68013304D0094B1B68FA6820
:100EF000D318FB60C046FFF7E1FF0200BB68D31ABE
:100F0000FA689A42F7D8C046C046BD4604B080BDD4
:100F10002400002080B582B000AF78607B681800A4
:100F2000FFF74CFFC046BD4602B080BD80B582B021
:100F300000AF786039607B681B68054A1A403B68DF
:100F40001A437B681A60C046BD4602B080BDC046E9
:100F5000FFFF3FFF80B582B000AF78607B681A6802
:100F6000C0231B0413401800BD4602B080BD80B5ED
:100F700084B000AFF860B9607A60FB685B69BA68FA
:100F800004210A40072191400A00D2431A40BB685D
:100F900004210B40796899400B001A43FB685A61A1
:100FA000C046BD4604B080BD80B582B000AF786059
:100FB00039607B685B693A6804210A4007219140E7
:100FC0000A001A403B6804210B40DA401300180065
:100FD000BD4602B080BD80B584B000AFF860B96096
:100FE0007A60FB689B6ABA681F210A400F21914012
:100FF0000A00D2431A407B689B0E0F211940BB6840
:101000001F20034099400B001A43FB689A62C046B8
:10101000BD4604B080BD80B582B000AF7860396055
:101020007B689A6A3B685B025B0A1A437B689A6238
:10103000C046BD4602B080BD80B582B000AF7860CA
:1010400039607B689B6A3A685202520AD2431A405E
:101050007B689A62C046BD4602B080BD80B584B050
:1010600000AFF860B9607A60FB685B69BA68120229
:10107000D2431A40BB681B0279680B4004490B40FD
:101080001A43FB685A61C046BD4604B080BDC046E5
:1010900000FFFF7F80B582B000AF78607B689B68FF
:1010A000054A1340802252051A437B689A60C04665
:1010B000BD4602B080BDC046E8FFFF6F80B582B07C
:1010C00000AF78607B689A6880235B051A408023B4
:1010D0005B059A4201D1012300E000231800BD46C0
:1010E00002B080BD80B582B000AF78607B689B683D
:1010F000044A134001221A437B689A60C046BD46E9
:1011000002B080BDE8FFFF7F80B582B000AF78609D
:101110007B689B6801221340012B01D1012300E071
:1011200000231800BD4602B080BD000080B582B02B
:1011300000AF78607B689B68044A134004221A431E
:101140007B689A60C046BD4602B080BDE8FFFF7F65
:1011500080B582B000AF78607B689B680422134042
:10116000042B01D1012300E000231800BD4602B08A
:1011700080BD000080B588B000AF78601F23FB18E9
:1011800000221A700023BB6100237B610023BB6037
:101190007B68002B01D10123A0E17B689B6D002BB4
:1011A0000AD17B681800FFF75FFD7B680022DA65D3
:1011B0007B685422002199547B681B681800FFF754
:1011C0007DFF031E14D17B681B681800FFF762FFC8
:1011D000C44B1B68C4491800FEF796FF03005B0070
:1011E000BB6002E0BB68013BBB60BB68002BF9D170
:1011F0007B681B681800FFF761FF031E0FD17B6837
:101200009B6D10221A437B689A657B68DB6D012217
:101210001A437B68DA651F23FB1801221A707B686A
:101220001B681800FFF794FF0300FB607B689B6D51
:101230001022134000D044E1FB68002B00D040E1B5
:101240007B689B6DA94A134002221A437B689A650A
:101250007B681B681800FFF757FF031E00D0ADE046
:101260007B689A687B681B7E9B031A437B685B7E66
:10127000DB031A437B689B7E5B031A437B681B6B13
:10128000002B02D080235B0100E000231A437B681F
:10129000DB681A437B681B69002B04DA7B681B69D7
:1012A0005B005B0801E080239B031A437B682C21D1
:1012B0005B5C5B001343BA691343BB617B6820220C
:1012C0009B5C012B15D17B689B7E002B05D1BB69F4
:1012D000802252021343BB610BE07B689B6D20228E
:1012E0001A437B689A657B68DB6D01221A437B6831
:1012F000DA657B685B6A002B0AD07B685A6AE02358
:101300005B001A407B689B6A1343BA691343BB6155
:101310007B681B68DB68764A134019007B681B6892
:10132000BA690A43DA607B685B689B0F9A077B683F
:10133000DB6C13437A6913437B617B683C229B5CC3
:10134000012B11D17B685B689B0F9A077B681B6C34
:101350001A437B685B6C1A437B689B6C1A437B69FE
:101360001343012213437B617B681B681B69614A3D
:10137000134019007B681B687A690A431A617B680D
:101380005A68C0231B069A4218D07B685A6880238B
:10139000DB059A4212D07B685A6880231B069A426A
:1013A0000CD0554B1B68554A134019007B685A688E
:1013B000F0239B031A40504B0A431A607B6818685D
:1013C0007B685B6B1A000021FFF7D1FD7B68186812
:1013D0007B689B6B4A491A00FFF7C9FD7B681B6954
:1013E000002B09D17B681B689A6A7B681B681021F7
:1013F00049420A439A623AE07B681A6980239B0358
:101400009A4234D100233B610CE07B681A6E3B6941
:101410009B00DA4013000F2213400F2B06D03B69CC
:1014200001333B613B69072BEFD900E0C0463B69C4
:10143000012B09D17B681B689A6A7B681B681021A5
:1014400049420A439A6212E07B681B689B6A7B6888
:10145000DB69013B9B001C221340102252429A4040
:1014600011007B681A6E7B681B680A439A627B686E
:101470001B6800211800FFF797FD02007B685B6B7B
:101480009A420BD17B680022DA657B689B6D032250
:10149000934301221A437B689A651CE07B689B6D2D
:1014A0001222934310221A437B689A657B68DB6D96
:1014B00001221A437B68DA651F23FB1801221A7088
:1014C00009E07B689B6D10221A437B689A651F2395
:1014D000FB1801221A701F23FB181B781800BD4649
:1014E00008B080BD1C000020400D0300FDFEFFFF82
:1014F0000102FEFF02FCFF1F08270140FFFFC3FFA0
:1015000004FFFF7FB0B584B000AF78607B681B68D4
:101510001800FFF71DFE031E35D17B6854229B5C2B
:10152000012B01D1022335E07B685422012199541B
:101530000F257C197B68180000F014FA0300237053
:101540007B191B78002B19D17B689B6D134A1340C4
:10155000802252001A437B689A657B680022DA6514
:101560007B681B681C221A607B68542200219954F6
:101570007B681B681800FFF7D9FD08E07B685422E0
:101580000021995403E00F23FB1802221A700F2345
:10159000FB181B781800BD4604B0B0BDFEF0FFFF7D
:1015A00080B582B000AF78607B681B681B6C180048
:1015B000BD4602B080BD000080B586B000AF786047
:1015C00039601723FB1800221A700023FB607B6828
:1015D00054229B5C012B01D10223BEE17B68542283
:1015E000012199547B681B681800FFF7B1FD031EA9
:1015F00000D0A1E13B685B68022B00D152E17B681F
:101600001A6980231B069A4204D07B681B69C24A70
:10161000934208D17B681A683B681B681900100068
:10162000FFF7F9FCEDE07B681A6E3B685B681F21F1
:101630000B400F2199400B00DB43134019003B681E
:101640001B685B025B0A05D13B681B689B0E1F226F
:101650001340BCE03B681B680122134000D0B5E09A
:101660003B681B680222134000D0ADE03B681B685A
:101670000422134000D0A5E03B681B6808221340F9
:1016800000D09DE03B681B681022134000D095E01D
:101690003B681B682022134000D08DE03B681B682C
:1016A0004022134000D085E03B681B688022134035
:1016B00000D07DE03B681A6880235B00134000D0B7
:1016C00074E03B681A6880239B00134000D06BE0F5
:1016D0003B681A688023DB00134000D062E03B685F
:1016E0001A6880231B01134000D059E03B681A6838
:1016F00080235B01134051D13B681A6880239B0112
:10170000134049D13B681A688023DB01134041D163
:101710003B681A6880231B02134039D13B681A6862
:1017200080235B02134031D13B681A6880239B02FF
:10173000134029D13B681A688023DB02134021D172
:101740003B681A6880231B03134019D13B681A6851
:1017500080235B03134011D13B681A6880239B03ED
:10176000134009D13B681A688023DB03134001D082
:1017700016232CE000232AE0152328E0142326E07A
:10178000132324E0122322E0112320E010231EE083
:101790000F231CE00E231AE00D2318E00C2316E0A3
:1017A0000B2314E00A2312E0092310E008230EE0C3
:1017B00007230CE006230AE0052308E0042306E0E3
:1017C000032304E0022302E0012300E000233A683F
:1017D00052681F20024093400A001A437B681A6631
:1017E0003B685B689B085A1C7B68DB699A4208D897
:1017F0007B6818683B6859683B681B681A00FFF7EC
:10180000EAFB7B6818683B6819683B689B681A00AC
:10181000FFF724FC3B681B68002B00DB96E03F4B86
:101820001800FFF797FB03003B613B681B683C4ACD
:10183000934223D13A6980231B0413401ED13B6994
:10184000802212041343354A19001000FFF76EFB83
:10185000344B1B6834491800FEF756FC03001A008D
:1018600013005B009B189B000133FB6002E0FB68E8
:10187000013BFB60FB68002BF9D167E03B681B680C
:101880002A4A934262D13A698023DB0313405DD137
:101890003B698022D2031343204A19001000FFF74E
:1018A00045FB53E07B681A6980231B069A4204D0EB
:1018B0007B681B69184A934207D17B681A683B68AA
:1018C0001B6819001000FFF7B7FB3B681B68002B73
:1018D0003CDA124B1800FFF73DFB03003B613B680D
:1018E0001B680F4A934208D13B69114A13400B4AC7
:1018F00019001000FFF71AFB28E03B681B680B4A31
:10190000934223D13B690B4A1340044A190010004B
:10191000FFF70CFB1AE0C0460400008008270140D6
:10192000000200A41C000020400D0300000400A8D9
:10193000FFFF7FFFFFFFBFFF7B689B6D20221A43E5
:101940007B689A651723FB1801221A707B68542262
:10195000002199541723FB181B781800BD4606B0C8
:1019600080BDC04680B584B000AF78600023BB6006
:101970007B681B681800FFF7C7FB031E62D17B68FA
:101980001B689B68324A13400DD07B689B6D102208
:101990001A437B689A657B68DB6D01221A437B687A
:1019A000DA6501234FE07B681B681800FFF79AFB9C
:1019B000284B1800FFF7CEFA020080231B041340C7
:1019C0000FD0254B1B6825491800FEF79DFB03002F
:1019D0000133BB6002E0BB68013BBB60BB68002B0E
:1019E000F9D17B685B7E012B2CD0FFF767FA0300EF
:1019F000FB6020E07B681B681800FFF785FB031E77
:101A000004D17B681B681800FFF76CFBFFF756FAE0
:101A10000200FB68D31A022B0DD97B689B6D102244
:101A20001A437B689A657B68DB6D01221A437B68E9
:101A3000DA65012307E07B681B681B6801221340FD
:101A4000012BD7D100231800BD4604B080BDC0468D
:101A500017000080082701401C000020400D0300F3
:101A600090B583B000AF02003960FB1D1A70FB1DFA
:101A70001B787F2B28D82F4AFB1D1B785BB29B0855
:101A8000C0339B009B58FA1D1278110003220A40B4
:101A9000D200FF2191400A00D2431A4011003B6856
:101AA0009B01FF221A40FB1D1B78180003230340F3
:101AB000DB009A401F48FB1D1B785BB29B080A4362
:101AC000C0339B001A5031E01B4AFB1D1B781900E4
:101AD0000F230B40083B9B0806339B00D3180433AD
:101AE0001B68FA1D1278110003220A40D200FF2160
:101AF00091400A00D2431A4011003B689B01FF222B
:101B00001A40FB1D1B78180003230340DB009A409A
:101B10000948FB1D1B781C000F232340083B9B0832
:101B20000A4306339B00C31804331A60C046BD46FF
:101B300003B090BD00E100E000ED00E080B582B0B0
:101B400000AF78607B685A1E80235B049A4201D301
:101B5000012310E00A4B7A68013A5A6001235B4284
:101B600003211800FFF77CFF054B00229A60044B0D
:101B700007221A6000231800BD4602B080BDC0468F
:101B800010E000E080B584B000AFB9607A600F214A
:101B90007B18021C1A70BA687B181B785BB21100A4
:101BA0001800FFF75DFFC046BD4604B080BD80B59C
:101BB00082B000AF78607B681800FFF7BFFF0300BA
:101BC0001800BD4602B080BD80B586B000AF786019
:101BD000396000233B614DE13B681B6801213A6994
:101BE00091400A001340FB60FB68002B00D13EE1EE
:101BF0003B685B68022B03D03B685B68122B25D1E6
:101C00003B69DA087B6808329200D3587B613B69F4
:101C1000072213409B000F229A401300DA437B698E
:101C200013407B613B681B690F221A403B69072107
:101C30000B409B009A4013007A6913437B613B6918
:101C4000DA087B68083292007969D1507B681B689A
:101C50007B613B695B0003229A401300DA437B6996
:101C600013407B613B685B6803221A403B695B0061
:101C70009A4013007A6913437B617B687A691A6022
:101C80003B685B68012B0BD03B685B68022B07D07D
:101C90003B685B68112B03D03B685B68122B30D12B
:101CA0007B689B687B613B695B0003229A40130061
:101CB000DA437B6913407B613B68DA683B695B0010
:101CC0009A4013007A6913437B617B687A699A6052
:101CD0007B685B687B6101223B699A401300DA43B1
:101CE0007B6913407B613B685B681B0901221A40DA
:101CF0003B699A4013007A6913437B617B687A6978
:101D00005A603B685B68032B17D07B68DB687B619C
:101D10003B695B0003229A401300DA437B6913405E
:101D20007B613B689A683B695B009A4013007A6963
:101D300013437B617B687A69DA603B685A68802369
:101D40005B05134000D192E0504A3B699B08183371
:101D50009B009B587B613B6903221340DB000F22F1
:101D60009A401300DA437B6913407B617A68A023B1
:101D7000DB059A4213D07B68454A93420DD07B68BD
:101D8000444A934207D07B68434A934201D10323DC
:101D900006E0052304E0022302E0012300E0002323
:101DA0003A6903210A40D20093407A6913437B6168
:101DB00036493B699B0818339B007A695A50334A6D
:101DC0008023D3587B61FB68DA437B6913407B61D6
:101DD0003B685A6880235B02134003D07A69FB6832
:101DE00013437B61294980227B698B50274A8423D6
:101DF000D3587B61FB68DA437B6913407B613B68A6
:101E00005A6880239B02134003D07A69FB6813430E
:101E10007B611E4984227B698B501C4B1B687B6154
:101E2000FB68DA437B6913407B613B685A68802317
:101E30005B03134003D07A69FB6813437B61134B48
:101E40007A691A60114B5B687B61FB68DA437B69D6
:101E500013407B613B685A6880239B03134003D087
:101E60007A69FB6813437B61084B7A695A603B6966
:101E700001333B613B681A683B69DA40131E00D0AE
:101E8000AAE6C046C046BD4606B080BD0018024066
:101E900000040050000800500014005080B584B0C9
:101EA00000AF78600A00BB1C1A807B681B69BA1CF3
:101EB0001288134004D00F23FB1801221A7003E08C
:101EC0000F23FB1800221A700F23FB181B78180031
:101ED000BD4604B080BD80B582B000AF7860080018
:101EE0001100BB1C021C1A807B1C0A1C1A707B1C74
:101EF0001B78002B04D0BB1C1A887B689A6103E016
:101F0000BB1C1A887B689A62C046BD4602B080BD81
:101F100080B586B000AF78607B68002B01D10123CB
:101F2000E5E17B681B680122134000D16FE0C44BE0
:101F30009B68382213407B617B69082B0BD1C04B17
:101F40001A6880239B02134061D07B685B68002B7A
:101F50005DD10123CBE17B685A6880235B029A4202
:101F600007D1B74B1A68B64B802149020A431A6061
:101F700020E07B685A68A023DB029A420ED1B04B66
:101F80001A68AF4B8021C9020A431A60AC4B1A6829
:101F9000AB4B802149020A431A600BE0A84B1A6838
:101FA000A74BA8490A401A60A54B1A68A44BA6493A
:101FB0000A401A607B685B68002B14D0FEF77EFF36
:101FC00003003B6108E0FEF779FF02003B69D31A8A
:101FD000642B01D903238AE1994B1A6880239B0261
:101FE0001340F0D013E0FEF769FF03003B6108E007
:101FF000FEF764FF02003B69D31A642B01D9032367
:1020000075E18F4B1A6880239B021340F0D17B68E7
:102010001B680222134000D18CE0894B9B68382258
:1020200013407B617B69002B35D1854B1A68802377
:10203000DB00134005D07B68DB68002B01D1012356
:1020400055E17F4B5B68814A134019007B685B69EF
:102050001A027B4B0A435A607B69002B12D1784BE2
:102060001B687B4A134019007B681A69744B0A434A
:102070001A60734B1B68DB0A07221340754ADA406B
:10208000754B1A60754B1B681800FEF7BDFE031EEA
:1020900050D001232BE17B68DB68002B30D0684BEC
:1020A0001B686B4A134019007B681A69644B0A432A
:1020B0001A60634B1A68624B802149000A431A6018
:1020C000FEF7FCFE03003B6108E0FEF7F7FE0200AE
:1020D0003B69D31A022B01D9032308E1584B1A6834
:1020E0008023DB001340F0D0554B5B68574A134008
:1020F00019007B685B691A02514B0A435A6019E068
:102100004F4B1A684E4B56490A401A60FEF7D6FEEE
:1021100003003B6108E0FEF7D1FE02003B69D31AE1
:10212000022B01D90323E2E0454B1A688023DB0030
:102130001340F0D17B681B680822134047D0404B06
:102140009B6838221340182B0AD13D4B1B6E02228C
:1021500013403CD07B689B69002B38D10123C6E03B
:102160007B689B69002B19D0354B1A6E344B0121CB
:102170000A431A66FEF7A2FE03003B6108E0FEF781
:102180009DFE02003B69D31A022B01D90323AEE066
:102190002B4B1B6E02221340F1D018E0284B1A6E15
:1021A000274B01218A431A66FEF788FE03003B6134
:1021B00008E0FEF783FE02003B69D31A022B01D927
:1021C000032394E01E4B1B6E02221340F1D17B6867
:1021D0001B680422134000D188E00F23FB18002263
:1021E0001A70174B9B6838221340202B0CD1144BCC
:1021F000DB6D0222134000D178E07B689B68002BE6
:1022000000D073E0012372E07B689B68012B06D14C
:102210000B4BDA6D0A4B01210A43DA652EE07B682D
:102220009B68052B1ED1064BDA6D054B04210A4332
:10223000DA65034BDA6D024B01210A43DA651DE0D2
:1022400000100240FFFFFEFFFFFFFBFFFF80FFFFCC
:10225000FFC7FFFF006CDC021C00002020000020F4
:10226000FFFEFFFF244BDA6D234B01218A43DA6521
:10227000214BDA6D204B04218A43DA657B689B6829
:10228000002B14D0FEF71AFE03003B6109E0FEF7B5
:1022900015FE02003B69D31A184A934201D9032361
:1022A00025E0154BDB6D02221340F0D013E0FEF762
:1022B00005FE03003B6109E0FEF700FE02003B69FA
:1022C000D31A0E4A934201D9032310E00A4BDB6D67
:1022D00002221340F0D10F23FB181B78012B05D1EC
:1022E000054BDA6B044B06490A40DA6300231800F9
:1022F000BD4606B080BDC0460010024088130000F5
:10230000FFFFFFEF80B584B000AF786039607B6875
:10231000002B01D10123E9E0764B1B680722134013
:102320003A689A421ED9734B1B68072293431900DF
:10233000704B3A680A431A60FEF7C0FD0300FB6069
:1023400009E0FEF7BBFD0200FB68D31A6A4A93421C
:1023500001D90323CAE0674B1B68072213403A6880
:102360009A42EED17B681B680222134017D07B682B
:102370001B680422134008D0604B9B68604A1A40D7
:102380005E4BB02109010A439A605C4B9B685D4A31
:10239000134019007B68DA68584B0A439A607B68DF
:1023A0001B680122134055D0544B1B681C229343D9
:1023B00019007B689A68514B0A431A607B685B6816
:1023C000012B07D14D4B1A6880239B0213401FD16C
:1023D00001238BE07B685B68002B07D1474B1A68B1
:1023E0008023DB00134013D101237FE07B685B680F
:1023F000032B06D1414B1B6E0222134008D101234F
:1024000074E03E4BDB6D0222134001D101236DE0ED
:102410003A4B9B680722934319007B685A68374BF5
:102420000A439A60FEF74AFD0300FB6009E0FEF7ED
:1024300045FD0200FB68D31A2F4A934201D90323BA
:1024400054E02E4B9B6838221A407B685B68DB00A7
:102450009A42ECD1274B1B68072213403A689A42F4
:102460001ED2244B1B68072293431900214B3A6864
:102470000A431A60FEF722FD0300FB6009E0FEF745
:102480001DFD0200FB68D31A1B4A934201D90323A6
:102490002CE0184B1B68072213403A689A42EED191
:1024A0007B681B680422134009D0144B9B68164AB2
:1024B000134019007B681A69104B0A439A6000F0B8
:1024C0002BF801000D4B9B681B0A0F221A400F4B83
:1024D0009200D3581F2213400A00DA400C4B1A60B6
:1024E0000C4B1B681800FEF78FFC03001800BD465C
:1024F00004B080BD0020024088130000001002409C
:10250000FF84FFFFFFF0FFFFFF8FFFFFE8270008BA
:102510001C0000202000002080B582B000AF1C4BC2
:102520009B68382213400FD1194B1B68DB0A072226
:10253000134001229A4013003B6039681548FDF7AB
:10254000E3FD03007B601EE0114B9B6838221340C3
:10255000082B02D1104B7B6015E00D4B9B68382295
:102560001340202B03D180231B027B600BE0084B20
:102570009B6838221340182B03D1FA23DB017B60C0
:1025800001E000237B607B681800BD4602B080BD7F
:1025900000100240006CDC0200127A0080B586B0A8
:1025A00000AF78601323FB1800221A701223FB1867
:1025B00000221A707B681A6880239B02134000D1A6
:1025C00079E011203B1800221A70644BDA6B8023EB
:1025D0005B05134010D1614BDA6B604B80214905DC
:1025E0000A43DA635D4BDA6B80235B051340BB6003
:1025F000BB683B1801221A70584BDA6DC0239B0050
:1026000013407B617B69002B19D07B689B697A69D9
:102610009A4214D0514BDB6D514A13407B614F4BB2
:10262000DA6D4E4B802149020A43DA654B4BDA6D75
:102630004A4B4C490A40DA65484B7A69DA657B694E
:102640000122134016D0FEF739FC0300FB600CE0BA
:10265000FEF734FC0200FB68D31A434A934204D9C4
:102660001323FB1803221A7004E03C4BDB6D02229B
:102670001340EDD01323FB181B78002B0AD1374BE6
:10268000DB6D374A134019007B689A69334B0A4364
:10269000DA6505E01223FB181322BA1812781A70B3
:1026A0001123FB181B78012B05D12C4BDA6B2B4B1C
:1026B0002E490A40DA637B681B680122134009D067
:1026C000264B5B6D0322934319007B689A68234B6A
:1026D0000A435A657B681B684022134009D01F4B90
:1026E0005B6D234A134019007B68DA681B4B0A4371
:1026F0005A657B681A688023DB01134008D0174BAA
:102700005B6D9B0099087B685A69144B0A435A65B4
:102710007B681A6880231B01134009D00F4B5B6D47
:10272000144A134019007B681A690C4B0A435A6516
:102730007B681B68002B09DA084B1B68E022934377
:1027400019007B685A68054B0A431A601223FB186C
:102750001B781800BD4606B080BDC0460010024080
:10276000FFFCFFFFFFFFFEFF88130000FFFFFFEFEE
:10277000FFCFFFFFFF3FFFFF70B500260C4D0D4C54
:10278000641BA410A64209D1002600F021F80A4DCE
:102790000A4C641BA410A64205D170BDB300EB58CF
:1027A00098470136EEE7B300EB5898470136F2E759
:1027B0002828000828280008282800082C280008B5
:1027C00003008218934200D1704719700133F9E772
:1027D000F8B5C046F8BC08BC9E467047F8B5C04680
:0827E000F8BC08BC9E467047DE
:1027E80000000000000000000000000000000000E1
:1027F80000000000000000000000000000000000D1
:1028080001000000020000000300000004000000B6
:102818000600000007000000080000000900000092
:04282800E9000008BB
:04282C00C1000008DF
:102830000004005000000050000000500000005054
:102840008000010000080010FF7F3F1F006CDC02C9
:0828500004000000010000007B
:0400000508000D6979
:00000001FF
