:020000040800F2
:100000000018002071080008510800085308000873
:1000100000000000000000000000000000000000E0
:10002000000000000000000000000000550800086B
:1000300000000000000000005708000859080008F0
:10004000C108000800000000C1080008C10800083D
:10005000C1080008C1080008C1080008C10800085C
:1000600000000000C1080008C1080008C10800081D
:10007000C1080008C1080008C1080008000000000D
:10008000C10800080000000000000000C1080008CE
:1000900000000000C1080008C1080008C1080008ED
:1000A00000000000C108000800000000C1080008AE
:1000B000C10800080000000000000000000000006F
:1000C00010B5064C2378002B07D1054B002B02D02E
:1000D000044800E000BF0123237010BD2800002069
:1000E00000000000CC160008044B10B5002B03D014
:1000F0000349044800E000BF10BDC04600000000F6
:100100002C000020CC160008002243088B4274D338
:1001100003098B425FD3030A8B4244D3030B8B4208
:1001200028D3030C8B420DD3FF22090212BA030C11
:100130008B4202D31212090265D0030B8B4219D3F2
:1001400000E0090AC30B8B4201D3CB03C01A524112
:10015000830B8B4201D38B03C01A5241430B8B425A
:1001600001D34B03C01A5241030B8B4201D30B0343
:10017000C01A5241C30A8B4201D3CB02C01A52416A
:10018000830A8B4201D38B02C01A5241430A8B422D
:1001900001D34B02C01A5241030A8B4201D30B0216
:1001A000C01A5241CDD2C3098B4201D3CB01C01A30
:1001B000524183098B4201D38B01C01A524143093A
:1001C0008B4201D34B01C01A524103098B4201D328
:1001D0000B01C01A5241C3088B4201D3CB00C01A95
:1001E000524183088B4201D38B00C01A524143080D
:1001F0008B4201D34B00C01A5241411A00D2014632
:10020000524110467047FFE701B5002000F006F8A4
:1002100002BDC0460029F7D076E770477047C04658
:1002200010B586B01022002102A801F047FA01247F
:10023000802301A908480193039400F0B1FE074B05
:10024000A0200193002301A9C00502930394049305
:1002500000F0A6FE06B010BD00040050011800001A
:1002600030B587B00822002104A801F027FA012543
:100270008023022401A9094801930295039400F008
:100280008FFE074BA0200193002301A9C005029512
:100290000394049300F084FE07B030BD00040050C6
:1002A00001180000F7B505000E00FFF7D9FF022383
:1002B0006427019300246300F15AA300E858002248
:1002C00000F026FF0134380000F042FB042CF2D18C
:1002D00000246300F15AA300E858012200F018FF3F
:1002E0000134380000F034FB042CF2D1019B012BC7
:1002F00002D001230193DDE7FA20800000F028FB03
:10030000FFF78EFFF7BD0000F8B500240600FFF7E9
:1003100087FF012000F01CFB25000327300000F0C0
:100320005DFC60400B4C0C4B4443E418A4B2200A23
:100330006040C3B2180901355840192D04D1830813
:10034000584003231840F8BD162DE7DD384000F073
:10035000FFFAE3E70508000019360000F8B50600CB
:1003600010001C0077180D00FFF7CEFF3870FFF764
:1003700077FF32212800FFF7C7FE03270740E71960
:100380000024335D079906985A009B00515A18586B
:10039000002200F0BDFE387800F0DAFA335D0799EC
:1003A00006985A009B00515A1858012200F0B0FEDE
:1003B0000134387800F0CCFAA542E2DAFFF730FFDA
:1003C000F8BDF8B5002405000E0027006300F15ABF
:1003D000A300E85800F096FE43424341A340013495
:1003E0001F43FFB2042CF1D13800F8BDF7B5160059
:1003F0001F00002500900191019B9D4201D9012021
:10040000FEBD39003000FFF7DCFF0028F9D00024E2
:10041000030001222341134202D1A418042CF7D176
:10042000192000F095FA6300D95BA300985900F0F9
:1004300069FE0028E0D139003000FFF7C2FF002834
:10044000F9D1009B5B5DA342DAD10135EDB2D3E770
:10045000F7B505000E00FFF703FF0223FA2701930B
:1004600000246300F15AA3000022E858013400F090
:100470004FFE042CF5D1380000F06AFA0024630026
:10048000F15AA3000122E858013400F041FE042C87
:10049000F5D1380000F05CFA019B012B02D001235A
:1004A0000193DDE7FFF7BCFEF7BDF7B506000C00D2
:1004B0001500FFF7D5FE64213000FFF725FE002769
:1004C000C3B20193019B9F4218D10A213000FFF76C
:1004D0001BFE0A21C0B2FFF79DFE0027CBB201939D
:1004E000019B9F421DD130000A21FFF793FE002699
:1004F000CFB2BE4228D1FFF793FEF7BD0022A988F4
:10050000A06800F005FEC82000F022FA0122A988A8
:10051000A06800F0FDFD0137C82000F019FAFFB215
:10052000D0E700226988606800F0F2FDC82000F082
:100530000FFA01226988606800F0EAFD0137C820DF
:1005400000F006FAFFB2CBE700222988206800F00D
:10055000DFFDC82000F0FCF901222988206800F0A6
:10056000D7FD0136C82000F0F3F9F6B2C1E700B5B7
:100570008DB01822002106A801F0A0F80021142255
:10058000684601F09BF802230593FE330893A023ED
:100590009B010993402305A80A9300F0BFFD011EAB
:1005A00001D072B6FEE707230190029003900490F9
:1005B0006846009300F022FF002801D072B6FEE7E3
:1005C0000DB000BDF0B591B000F0A4F9FFF7CFFF7A
:1005D000642000F0BDF9142200210BA801F06EF890
:1005E00002210126614C6248626B624F0A436263DA
:1005F000636B00220B400693069B636B7E31334393
:100600006363636B002533400793079B00F080FD15
:10061000A02000223900C00500F07AFD8023544854
:100620000BA90B930C960D960E9500F0B9FCA0202B
:100630000BA9C0050B970C960D960E9500F0B0FC1B
:10064000142000F097F90C22290008A801F036F8D0
:10065000636B494833436363636B0BA93340059372
:10066000059B80239B010B9303230D950C9300F0B6
:1006700097FC424C424B200023608023DB056360E3
:100680000423636123002C331D70230025833C3336
:10069000A560E5602561A676E6616562A5622563D1
:1006A0006563A5631D70E56400F06EF9A84201D092
:1006B00072B6FEE7334B09900A9008A92000089310
:1006C00000F090FA051E01D072B6FEE7200000F09F
:1006D000F5FB2D4F6B002D4ED95BAB0001229859D5
:1006E000013500F015FD042DF3D139003000FFF77E
:1006F000D9FD274F244D3978632930D8234E220065
:10070000244B254801950096FFF728FE2B00320068
:1007100039782148FFF76AFE03000390FA20400071
:10072000002B05D000F014F93B7801333B70E0E773
:1007300000F00EF929003000FFF78AFEFA20400091
:1007400000F006F931002A003878FFF7AEFEFA20F3
:10075000400000F0FDF8039B29003B70C6E7002332
:1007600029000A483B70FFF79DFDF8E700100240A2
:100770000004005001180000000800504400002050
:100780000024014000200034040000200C00002060
:100790000C01002000000020A800002072B6FEE737
:1007A00001200A4B82B0196C0143196480211A6C34
:1007B000490502400092009ADA6B0A43DA63DB6B68
:1007C0000B400193019B02B07047C04600100240ED
:1007D00010B504008EB01422002102A800F06EFFB4
:1007E0001C22002107A800F069FF174B22689A42DB
:1007F00027D1802307A8DB01079300F0B1FE002872
:1008000001D0FFF7CBFF8020104B4003196C014350
:10081000196401211A6C02400092009A5A6BA020C0
:100820000A435A635B6BC0050B400193019B802315
:100830009B01029303230393002302A9049300F076
:10084000AFFB0EB010BDC0460024014000100240B6
:10085000FEE7FEE77047704710B500F067F810BD7F
:100860008022024B12059A607047C04600ED00E0FE
:100870000D488546002103E00C4B5B584350043182
:100880000B480C4B42189A42F6D30B4A02E0002365
:1008900013600432094B9A42F9D3FFF7E1FF00F0ED
:1008A000E9FEFFF78FFEFEE7001800202C17000876
:1008B0000000002028000020280000201401002053
:1008C000FEE70000104B70B519680500002901D142
:1008D000012070BDFA208000FFF716FC0B4B0100D1
:1008E0001868FFF711FC00F041FB041EF0D1032D46
:1008F000EED8020001202900404200F00DFB044B1D
:1009000020001D60E5E7C046200000201C000020FC
:100910002400002010B50320FFF7D4FF041E03D1EC
:10092000FFF73EFF200010BD0124FBE7034A044906
:10093000136809685B1813607047C04610010020F7
:1009400020000020014B18687047C04610010020AD
:1009500070B50400FFF7F6FF0500631C02D0044BDE
:100960001B68E418FFF7EEFF401BA042FAD370BDEE
:1009700020000020014BD8637047C04600000140B2
:1009800080684007C00F70470023F0B585B00400B1
:1009900001250393984200D1B9E0856D9D4205D1B0
:1009A000FFF716FF23005433E5651D70802326688A
:1009B0005B05B2681A4200D1ACE0B3680025DB00E9
:1009C00007D410230125A26D1343A365E36D2B43C8
:1009D000E3653000FFF7D4FF1023A26D1A401043E7
:1009E000009000D0E5E0A36D744A1A40022313433F
:1009F000A36523689A68D20767D4A17E277E8C46B8
:100A00004903667E0191216BA268BF03F6030029AA
:100A100001D080214901E06802433A4301982769E7
:100A200032430243002F00DB88E07F007F0826006E
:100A30002C36367876001643621CD27F3143394318
:100A4000012A06D16046002800D07AE080225202B6
:100A50001143626A002A05D0E026A06A760032407F
:100A600002431143DE68564A16403143D96061683B
:100A7000E26C8F0FBF073A43944622003C3216784F
:100A8000012E09D1606C226C024360460243A06CC7
:100A900002433A431643B4461A694A4E604632400E
:100AA000802602431A614A005208F605B2420CD071
:100AB00080221206914208D0434E444F32683A4099
:100AC000F027BF03394011433160072670275A6968
:100AD000616BB2430A435A615E69A26BBE43120165
:100AE00032435A612269002A33D1986A103A02438C
:100AF0009A6207225B69134099424ED10023E36555
:100B0000A36D043A93431A0001231343A3652800FD
:100B100005B0F0BDB2682E490A401343B3602D4BB7
:100B20002D491868FFF7F0FA40000390039B002B53
:100B300000D142E7039B013B0393F7E78027BF0304
:100B400075E72026A76D3E43A665E66D3243E26554
:100B50007FE78026B603B242CBD10F27266E300046
:100B6000009A9200D04002003A400F2A0FD0009A1B
:100B700001320092082AF2D11C209A6AE269013AF5
:100B8000920002402C38904002003243B0E7009AB5
:100B9000012AF1D1986A113AA9E71222A36D012521
:100BA00093431A0010231343A365E36D2B43E365BE
:100BB000ADE7A26D01251343A365A8E7FDFEFFFF86
:100BC0000102FEFF02FCFF1F08270140FFFFC3FFD9
:100BD000E8FFFF6F1C000020400D03000368186C45
:100BE000704700000023F0B587B00593030054332D
:100BF0001A7804000E000220012A00D1CFE001255E
:100C00001D702068FFF7BCFE002800D0ECE0042235
:100C10002769736897438022019312069446019ACC
:100C20003368022A00D1BCE05902490A22680291C5
:100C300067450FD1906A01439162B1685569180206
:100C40006C4E01403140854329435161002B70DBDC
:100C50000020A1E01F21019F0F40BC460F276146E5
:100C60008F40F9430391216EB9430F000299002987
:100C700014D1980E1F3108406146884001990743FE
:100C80008908E069013127668142D6D86546990016
:100C9000090FA940906A039D2840CCE72B42EBD175
:100CA000022128000B42E7D1080049180B42E3D18A
:100CB00001301907E0D40130D906DDD4013099069E
:100CC000DAD401305906D7D401301906D4D4013012
:100CD000D905D1D401309905CED401305905CBD4F2
:100CE00001301905C8D40130D904C5D401309904A4
:100CF000C2D401305904BFD401301904BCD401302E
:100D0000D903B9D401309903B6D401305903B3D40F
:100D100001301903B0D40130D902ADD401309902A9
:100D2000AAD480211800C90308400B42A4D0162081
:100D3000A2E7C025304A314916682D0435408B4260
:100D400019D180200004064282D113682C490B403F
:100D50002B43034313602B4B2B491868FFF7D4F93F
:100D60000C23434301330593059B002B00D16FE710
:100D7000059B013BF7E725498B4200D068E78023BC
:100D80003000DB0318401E4200D061E711681C4EA2
:100D9000314029430B43136000235434237007B0C0
:100DA000F0BD674505D120685902826A490A8A4325
:100DB0008262002B00DB4BE70F4910480A68834230
:100DC00008D18023DB031A4008680D4B03401A4307
:100DD0000A603DE70D48834200D039E780200004D7
:100DE00002400B680648F1E72023A26D2800134358
:100DF000A365D1E700FFFF7F08270140000200A4A0
:100E0000FFFF3FFF1C000020400D0300000400A86E
:100E10000023F7B504000193036801209A68024299
:100E200001D00020FEBD99681F4A114207D010234F
:100E3000A26D1343A365E36D0343E365F2E79A688C
:100E40001A4D2A4010439860194B1B681B021DD491
:100E5000637E012BE5D0FFF775FD012607002268B0
:100E600013683342DDD19368334203D193682B403A
:100E700033439360FFF766FDC01B0228EFD91023B0
:100E8000A26D01201343A365E36DD5E7094B0A4921
:100E90001868FFF739F901300190019B002BD7D07A
:100EA000019B013B0193F8E717000080E8FFFF7FFB
:100EB000082701401C000020400D030070B504000D
:100EC0000068FFF75DFD06000220002E1DD1250001
:100ED00054352B78012B18D0012320002B70FFF7FD
:100EE00097FF002812D1A36D094A0A491A408023AE
:100EF0005B0013431C22A3652368E0651A60287019
:100F00009A68114004220A439A6070BD2E70FCE773
:100F1000FEF0FFFFE8FFFF7F30B5FF2503242A0026
:100F20000440E400A24089012940D243A140C3B259
:100F300000280ADBC0240B4B80088000C018A400E6
:100F400003591A401143015130BD0F200340083BA3
:100F500005489B089B001B18D86902401143D961C2
:100F6000F2E7C04600E100E000ED00E08022431E11
:100F70005204012093420DD2C021074A0748536012
:100F8000036A09061B021B0A0B43036200200723A6
:100F9000906013607047C04610E000E000ED00E094
:100FA0000023F0B585B00A681400DC4001D105B01B
:100FB000F0BD01249C40029414400194029C224202
:100FC00000D190E04A681500944610229543022D06
:100FD00011D10F27DA08072492008218166A0392AB
:100FE0003A001C40A400A24096430A691740A7405B
:100FF000039A3743176203225C00A2400668D74376
:1010000096430396624603263240A240039E013D6A
:1010100032430260012D0FD8CA688568A2403D4066
:101020002A4382604568029A012695436246120966
:1010300032409A402A4342606246032A53D0C26833
:101040003A408F68A74080243A43C26062466405F4
:10105000224248D0254A03259C08A400A4180F2248
:101060001D40ED00AA40A027266EFF0596430022F2
:10107000B8420CD01E4F0132B84208D01D4F013289
:10108000B84204D01C4F0132B84200D00232AA400C
:10109000674632432266194A019CD66F019DE4439C
:1010A0003543FF0301D4350025406746D567144D0D
:1010B000019EEA6F1643BF0301D422401600674623
:1010C0000A4AEE671668019D3543FF0201D43500D8
:1010D0002540674615605568019E2E43BF0201D426
:1010E00025402E00566001335DE7C04600180240DF
:1010F0000004005000080050001400500418024082
:101100000818024000690840431E9841C0B2704769
:10111000002A01D0816170478162FCE7F8B5041EA6
:1011200001D10120F8BD0368DB070DD423689B07BC
:1011300053D423681B0700D5ADE0042123680B427C
:1011400000D0DDE00020EDE738228F4DAB68134082
:10115000082B06D12B689B03E8D54368002BE5D10B
:10116000DFE7802243685202934211D12A68134379
:101170002B60FFF7E7FB80270600BF022B683B428E
:10118000D4D1FFF7DFFB801B6428F7D90320C9E720
:10119000A021C9028B4208D180232968DB020B43BE
:1011A0002B602B681A432A60E3E72A6877490A40D4
:1011B0002A602A6876490A402A60002BD9D1FFF7B5
:1011C000C1FB80270600BF022B683B42AED0FFF771
:1011D000B9FB801B6428F7D9D8E738236A4DAA6881
:1011E0001A4221D12B685B0502D5E368002B98D009
:1011F0006A68636967491B020A4013436B602B6886
:10120000654A1340226913432B602B68634A9B0491
:101210005B0FDA401300624A1360624B1868FFF7F5
:1012200051FB002885D07CE7E368002B20D02B6899
:10123000594A802713402269FF0013432B60802303
:101240002A685B0013432B60FFF77CFB06002B68CA
:101250003B4207D06A6863694E491B020A40134348
:101260006B6066E7FFF76EFB801B0228EFD98DE706
:101270002B684D4A802713402B60FFF763FB060065
:10128000FF002B683B4200D153E7FFF75BFB801B5D
:101290000228F6D97AE738223B4DAB681340182B69
:1012A00008D12B6E9B0700D447E7A369002B00D021
:1012B00043E736E7A2690123002A10D02A6E0227ED
:1012C00013432B66FFF73EFB06002B6E3B4200D01C
:1012D00033E7FFF737FB801B0228F6D956E72A6E63
:1012E00002279A432A66FFF72DFB06002B6E3B422E
:1012F00000D122E7FFF726FB801B0228F6D945E73D
:101300003822214DAB681340202B08D1EB6D9B0791
:1013100000D417E7A06843425841C0B202E7A3686F
:10132000012B11D1EA6D1343EB65FFF70BFB02268E
:101330000400EB6D334200D004E7FFF703FB1B4BC7
:10134000001B9842F5D921E7052B05D1EB6D194318
:10135000E9650123EA6DE6E70120EA6D8243EA656B
:10136000EA6D8A43EA65002BDFD1FFF7EBFA02262C
:101370000400EB6D334200D1E4E6FFF7E3FA0B4BD8
:10138000001B9842F5D901E700100240FFFFFEFF65
:10139000FFFFFBFFFF80FFFFFFC7FFFF006CDC02CA
:1013A0001C00002024000020FFFEFFFF8813000027
:1013B00038220F4B9968114205D11B680D489B04D8
:1013C0005B0FD84070479968114008290BD0996885
:1013D0001140202909D09B6800201A40182AF1D119
:1013E000FA20C001EEE70448ECE780200002E9E7BC
:1013F00000100240006CDC0200127A00F7B5040015
:101400000D00002801D10120FEBD07274B4E336897
:101410003B408B422AD321688B073BD4CB074AD46D
:10142000072733683B40AB420AD93368BB432B43A1
:101430003360FFF787FA019033683B40AB426DD1D0
:1014400023683F4D5B0771D4FFF7B2FFAB683D4A9D
:101450001B051B0F9B009B581F221340D8403A4B83
:1014600018603A4B1868FFF72DFACDE73368BB4395
:101470000B433360FFF766FA019033683B40AB42A1
:10148000C9D0FFF75FFA019BC01A314B9842F4D9DB
:101490000320B9E72A4A4B0706D593682D48184020
:1014A000B0231B010343936093682B480340E0681B
:1014B00003439360B2E71C22214F3B689343A26829
:1014C00013433B606268012A19D13B689B039AD59C
:1014D0000721BB688B431343BB60FFF733FA0190CE
:1014E0003823BA681A406368DB009A4298D0FFF745
:1014F00029FA019BC01A164B9842F1D9C8E7002A75
:1015000003D13B685B05E3D47DE70223032A03D1C3
:10151000396E1942DCD176E7F96DFAE7FFF712FA76
:10152000019BC01A0A4B984286D9B1E7AB680B4AB7
:10153000134022691343AB6086E7C0460020024097
:1015400000100240E41600081C00002024000020C7
:1015500088130000FF84FFFFFFF0FFFFFF8FFFFFF6
:10156000F0B505002B68002085B09B0322D58022B2
:10157000394C5205E36B0600134207D1E36B013689
:101580001343E363E36B13400393039BE26DC023B8
:1015900011009B00314F19401A423BD10020E36DEE
:1015A0001F40AB691F43E765012E03D1E36B2C4A53
:1015B0001340E3632A68D30706D5032426494B6DFD
:1015C000A343AC6823434B65530606D52249254CFB
:1015D0004B6D2340EC6823434B65530406D51E49ED
:1015E0006C694B6D9B009B0823434B65130506D527
:1015F00019491D4C4B6D23402C6923434B65002A30
:1016000006DAE021144A13688B4369680B431360C0
:1016100005B0F0BDAB699942C0D08023E26DE06DAA
:1016200011005B020343E365E36D1048394003405A
:10163000E365E165D307B1D5FFF784F90190022294
:10164000E36D1342AAD1FFF77DF9019BC01A084B45
:101650009842F4D90320A7E700100240FFFCFFFFE7
:10166000FFFFFFEFFFCFFFFFFF3FFFFFFFFFFEFF8B
:101670008813000070B500260C4D0D4C641BA4109F
:10168000A64209D1002600F021F80A4D0A4C641B3D
:10169000A410A64205D170BDB300EB58984701369F
:1016A000EEE7B300EB5898470136F2E7241700083D
:1016B00024170008241700082817000803008218C0
:1016C000934200D1704719700133F9E7F8B5C0466D
:1016D000F8BC08BC9E467047F8B5C046F8BC08BCCC
:0416E0009E4670476B
:1016E40000000000000000000000000000000000F6
:1016F40000000000000000000000000000000000E6
:1017040001000000020000000300000004000000CB
:1017140006000000070000000800000009000000A7
:04172400E9000008D0
:04172800C1000008F4
:10172C00FF7F3F1F800001000008001000040050E4
:10173C00000000500000005000000050006CDC0263
:08174C00010000000400000090
:040000050800087176
:00000001FF
